{
  "contractName": "Cert",
  "abi": [
    {
      "inputs": [],
      "stateMutability": "nonpayable",
      "type": "constructor"
    },
    {
      "inputs": [
        {
          "internalType": "uint256",
          "name": "",
          "type": "uint256"
        }
      ],
      "name": "certificateDetails",
      "outputs": [
        {
          "internalType": "string",
          "name": "courseName",
          "type": "string"
        },
        {
          "internalType": "string",
          "name": "candidateName",
          "type": "string"
        },
        {
          "internalType": "string",
          "name": "grade",
          "type": "string"
        },
        {
          "internalType": "string",
          "name": "date",
          "type": "string"
        },
        {
          "internalType": "bytes",
          "name": "document",
          "type": "bytes"
        }
      ],
      "stateMutability": "view",
      "type": "function",
      "constant": true
    },
    {
      "inputs": [
        {
          "internalType": "uint256",
          "name": "_certificateID",
          "type": "uint256"
        },
        {
          "internalType": "string",
          "name": "_courseName",
          "type": "string"
        },
        {
          "internalType": "string",
          "name": "_candidateName",
          "type": "string"
        },
        {
          "internalType": "string",
          "name": "_grade",
          "type": "string"
        },
        {
          "internalType": "string",
          "name": "_date",
          "type": "string"
        },
        {
          "internalType": "bytes",
          "name": "_document",
          "type": "bytes"
        }
      ],
      "name": "newCertificate",
      "outputs": [],
      "stateMutability": "nonpayable",
      "type": "function"
    }
  ],
  "bytecode": "0x608060405234801561001057600080fd5b50336000806101000a81548173ffffffffffffffffffffffffffffffffffffffff021916908373ffffffffffffffffffffffffffffffffffffffff160217905550610e18806100606000396000f3fe608060405234801561001057600080fd5b50600436106100365760003560e01c806344128c871461003b578063af0c84ba1461006f575b600080fd5b610055600480360381019061005091906104f4565b61008b565b604051610066959493929190610606565b60405180910390f35b61008960048036038101906100849190610852565b610369565b005b60016020528060005260406000206000915090508060000180546100ae9061099a565b80601f01602080910402602001604051908101604052809291908181526020018280546100da9061099a565b80156101275780601f106100fc57610100808354040283529160200191610127565b820191906000526020600020905b81548152906001019060200180831161010a57829003601f168201915b50505050509080600101805461013c9061099a565b80601f01602080910402602001604051908101604052809291908181526020018280546101689061099a565b80156101b55780601f1061018a576101008083540402835291602001916101b5565b820191906000526020600020905b81548152906001019060200180831161019857829003601f168201915b5050505050908060020180546101ca9061099a565b80601f01602080910402602001604051908101604052809291908181526020018280546101f69061099a565b80156102435780601f1061021857610100808354040283529160200191610243565b820191906000526020600020905b81548152906001019060200180831161022657829003601f168201915b5050505050908060030180546102589061099a565b80601f01602080910402602001604051908101604052809291908181526020018280546102849061099a565b80156102d15780601f106102a6576101008083540402835291602001916102d1565b820191906000526020600020905b8154815290600101906020018083116102b457829003601f168201915b5050505050908060040180546102e69061099a565b80601f01602080910402602001604051908101604052809291908181526020018280546103129061099a565b801561035f5780601f106103345761010080835404028352916020019161035f565b820191906000526020600020905b81548152906001019060200180831161034257829003601f168201915b5050505050905085565b60008054906101000a900473ffffffffffffffffffffffffffffffffffffffff1673ffffffffffffffffffffffffffffffffffffffff163373ffffffffffffffffffffffffffffffffffffffff16146103f7576040517f08c379a00000000000000000000000000000000000000000000000000000000081526004016103ee90610a17565b60405180910390fd5b6040518060a00160405280868152602001858152602001848152602001838152602001828152506001600088815260200190815260200160002060008201518160000190816104469190610be3565b50602082015181600101908161045c9190610be3565b5060408201518160020190816104729190610be3565b5060608201518160030190816104889190610be3565b50608082015181600401908161049e9190610d10565b50905050505050505050565b6000604051905090565b600080fd5b600080fd5b6000819050919050565b6104d1816104be565b81146104dc57600080fd5b50565b6000813590506104ee816104c8565b92915050565b60006020828403121561050a576105096104b4565b5b6000610518848285016104df565b91505092915050565b600081519050919050565b600082825260208201905092915050565b60005b8381101561055b578082015181840152602081019050610540565b60008484015250505050565b6000601f19601f8301169050919050565b600061058382610521565b61058d818561052c565b935061059d81856020860161053d565b6105a681610567565b840191505092915050565b600081519050919050565b600082825260208201905092915050565b60006105d8826105b1565b6105e281856105bc565b93506105f281856020860161053d565b6105fb81610567565b840191505092915050565b600060a08201905081810360008301526106208188610578565b905081810360208301526106348187610578565b905081810360408301526106488186610578565b9050818103606083015261065c8185610578565b9050818103608083015261067081846105cd565b90509695505050505050565b600080fd5b600080fd5b7f4e487b7100000000000000000000000000000000000000000000000000000000600052604160045260246000fd5b6106be82610567565b810181811067ffffffffffffffff821117156106dd576106dc610686565b5b80604052505050565b60006106f06104aa565b90506106fc82826106b5565b919050565b600067ffffffffffffffff82111561071c5761071b610686565b5b61072582610567565b9050602081019050919050565b82818337600083830152505050565b600061075461074f84610701565b6106e6565b9050828152602081018484840111156107705761076f610681565b5b61077b848285610732565b509392505050565b600082601f8301126107985761079761067c565b5b81356107a8848260208601610741565b91505092915050565b600067ffffffffffffffff8211156107cc576107cb610686565b5b6107d582610567565b9050602081019050919050565b60006107f56107f0846107b1565b6106e6565b90508281526020810184848401111561081157610810610681565b5b61081c848285610732565b509392505050565b600082601f8301126108395761083861067c565b5b81356108498482602086016107e2565b91505092915050565b60008060008060008060c0878903121561086f5761086e6104b4565b5b600061087d89828a016104df565b965050602087013567ffffffffffffffff81111561089e5761089d6104b9565b5b6108aa89828a01610783565b955050604087013567ffffffffffffffff8111156108cb576108ca6104b9565b5b6108d789828a01610783565b945050606087013567ffffffffffffffff8111156108f8576108f76104b9565b5b61090489828a01610783565b935050608087013567ffffffffffffffff811115610925576109246104b9565b5b61093189828a01610783565b92505060a087013567ffffffffffffffff811115610952576109516104b9565b5b61095e89828a01610824565b9150509295509295509295565b7f4e487b7100000000000000000000000000000000000000000000000000000000600052602260045260246000fd5b600060028204905060018216806109b257607f821691505b6020821081036109c5576109c461096b565b5b50919050565b7f496e73756666696369656e742070726976696c65676500000000000000000000600082015250565b6000610a0160168361052c565b9150610a0c826109cb565b602082019050919050565b60006020820190508181036000830152610a30816109f4565b9050919050565b60008190508160005260206000209050919050565b60006020601f8301049050919050565b600082821b905092915050565b600060088302610a997fffffffffffffffffffffffffffffffffffffffffffffffffffffffffffffffff82610a5c565b610aa38683610a5c565b95508019841693508086168417925050509392505050565b6000819050919050565b6000610ae0610adb610ad6846104be565b610abb565b6104be565b9050919050565b6000819050919050565b610afa83610ac5565b610b0e610b0682610ae7565b848454610a69565b825550505050565b600090565b610b23610b16565b610b2e818484610af1565b505050565b5b81811015610b5257610b47600082610b1b565b600181019050610b34565b5050565b601f821115610b9757610b6881610a37565b610b7184610a4c565b81016020851015610b80578190505b610b94610b8c85610a4c565b830182610b33565b50505b505050565b600082821c905092915050565b6000610bba60001984600802610b9c565b1980831691505092915050565b6000610bd38383610ba9565b9150826002028217905092915050565b610bec82610521565b67ffffffffffffffff811115610c0557610c04610686565b5b610c0f825461099a565b610c1a828285610b56565b600060209050601f831160018114610c4d5760008415610c3b578287015190505b610c458582610bc7565b865550610cad565b601f198416610c5b86610a37565b60005b82811015610c8357848901518255600182019150602085019450602081019050610c5e565b86831015610ca05784890151610c9c601f891682610ba9565b8355505b6001600288020188555050505b505050505050565b60008190508160005260206000209050919050565b601f821115610d0b57610cdc81610cb5565b610ce584610a4c565b81016020851015610cf4578190505b610d08610d0085610a4c565b830182610b33565b50505b505050565b610d19826105b1565b67ffffffffffffffff811115610d3257610d31610686565b5b610d3c825461099a565b610d47828285610cca565b600060209050601f831160018114610d7a5760008415610d68578287015190505b610d728582610bc7565b865550610dda565b601f198416610d8886610cb5565b60005b82811015610db057848901518255600182019150602085019450602081019050610d8b565b86831015610dcd5784890151610dc9601f891682610ba9565b8355505b6001600288020188555050505b50505050505056fea2646970667358221220325f9b8f0c8f8b36182abafa087e9f7eb3309e592bbb4fe845210de8238418af64736f6c63430008110033",
  "immutableReferences": {},
  "source": "// SPDX-License-Identifier: MIT\npragma solidity 0.8.17;\n\ncontract Cert {\n    address admin;\n\n    constructor() {\n        admin = msg.sender;\n    }\n\n    modifier onlyAdmin() {\n        require(msg.sender == admin, \"Insufficient privilege\");\n        _;\n    }\n\n    struct certificate {\n        string courseName;\n        string candidateName;\n        string grade;\n        string date;\n        bytes document;\n    }\n\n    mapping(uint => certificate) public certificateDetails;\n\n    function newCertificate(\n        uint _certificateID,\n        string memory _courseName,\n        string memory _candidateName,\n        string memory _grade,\n        string memory _date,\n        bytes memory _document\n    ) public onlyAdmin {\n        certificateDetails[_certificateID] = certificate(\n            _courseName,\n            _candidateName,\n            _grade,\n            _date,\n            _document\n        );\n    }\n}\n",
  "sourcePath": "/home/seraph/Documents/workspace/svapp/truffle/contracts/Cert.sol",
  "compiler": {
    "name": "solc",
    "version": "0.8.17+commit.8df45f5f.Emscripten.clang"
  },
  "schemaVersion": "3.4.11",
  "updatedAt": "2023-01-09T16:51:33.155Z",
  "networkType": "ethereum",
  "devdoc": {
    "kind": "dev",
    "methods": {},
    "version": 1
  },
  "userdoc": {
    "kind": "user",
    "methods": {},
    "version": 1
  }
}